:100000000C942E000C94C9000C94C9000C94C900E7
:100010000C94C9000C94C9000C94C9000C94C9003C
:100020000C94C9000C94C9000C94C9000C94C9002C
:100030000C94C9000C94C9000C94C9000C94C9001C
:100040000C94C9000C94C9000C94C9000C94C9000C
:100050000C94C9000060006A0001A00011241FBEBA
:10006000CFE5D8E0DEBFCDBFE4E5F0E040E017C06B
:10007000B591A59135912591059107FD0CC09591FC
:100080008591EF01F92FE82F05900D92A217B30784
:10009000D9F7FE0104C01D92A217B307E1F7EB35B3
:1000A000F40731F70E9458000C94B700F894FFCF82
:1000B000CF93DF93CDB7DEB72A970FB6F894DEBFA4
:1000C0000FBECDBF8AE0E0E6F0E0DE0111960190C0
:1000D0000D928A95E1F780E00E94C20010E014C002
:1000E000E1E0F0E0EC0FFD1FE10FF11D608180E029
:1000F0000E94C6002FE38DE093E0215080409040A5
:0E010000E1F700C000001F5F1A3050F3E7CF98
:10010E00982F8FEF860F8E3F10F080E001C081E0B8
:10011E00811115C0913049F028F0923049F093309A
:10012E0051F00CC06ABB81E0089567BB81E0089571
:10013E0064BB81E0089561BB81E0089581E008957C
:10014E00813041F028F0823031F0833031F006C03A
:10015E006BBB04C068BB65BB01C062BB81E0089588
:10016E00EC010E94CE000E94CD00CE010E94CF0075
:06017E00CE010E94CB003F
:080184006FEF0E94870008954F
:06018C000E94A700089587
:040192000C940000C9
:040196000E9456006D
:02019A000895C6
:02019C000895C4
:02019E000895C2
:0A01A0003F065B4F666D7D07FF6FA1
:00000001FF
